:020000040800F2
:10000000F8FF0020B9020008336B0208216B0208D8
:10001000356B0208416B02084D6B020800000000BE
:10002000000000000000000000000000596B020802
:100030005B6B020800000000D96F020835700208EF
:1000400095010008C96B0208D56B0208DD6B020838
:1000500095010008950100085D6B0208636B0208BA
:10006000696B02086F6B0208756B0208DD9002086D
:10007000ED900208FD9002080D9102081D91020802
:100080002D9102083D910208950100080000000032
:100090000000000000000000000000007B6B020870
:1000A000F16B0208F76B0208096C02080F6C02087A
:1000B000156C02081B6C0208216C020895010008EF
:1000C00095010008950100089501000895010008B8
:1000D00095010008416C0208476C0208000000000E
:1000E0009F6B0208CF6B020895010008000000001A
:1000F0000000000000000000000000004D91020818
:100100000000000095010008296C02089501000814
:1001100000000000000000000000000000000000DF
:100120005D9102086D9102087D9102088D9102088F
:100130009D91020800000000000000000000000087
:100140000000000000000000000000009501000811
:10015000AD910208BD910208CD9102084D6C0208D4
:100160009501000895010008000000000000000053
:10017000000000000000000000000000000000007F
:1001800000000000950100080000000000000000D1
:0401900095010008CD
:10019400FEE700000F49D1F8883043F47003C1F83A
:1001A40088300D4B1A68002042F001021A609860F2
:1001B4001A6822F0847222F480321A60074A5A6064
:1001C4001A6822F480221A60D8604FF000638B60B2
:1001D400704700BF00ED00E00038024010300024FA
:1001E40030B595B01422002103A8302522F046FA38
:1001F4002A46002108A822F041FA0023294A019343
:10020400116C41F080511164126C02F08052019221
:10021400019A254A0293116841F440411160126821
:100224000B9302F440420292029A0593012208922F
:100234004FF48032099210220C924FF480020F92F4
:1002440002220E920F2203924FF4A8724FF4A0538D
:100254001192042219241292069307224FF4805318
:1002640008A810941392079324F012F910B10F48C0
:1002740026F0B8F9119B10996343B3FBF1F3B3FB78
:10028400F5F205FB1232003218BF01221299B3FBBA
:10029400F1F103A826F0F8FF08B10548E8E715B026
:1002A40030BD00BF003802400070004018D2020880
:1002B4002AD202080446DFF82CD00B490B4A0C4B17
:1002C40003E051F8040B42F8040B9A42F9D30020DE
:1002D4000849094A01E041F8040B9142FBD3204646
:1002E40026F064BAF8FF0020B49C03080000002044
:1002F4001000002010000020040A002040F8044BE5
:1003040040F8045B40F8046B40F8047B40F8048B2D
:1003140040F8049B40F804AB40F804BB40F804CB1D
:1003240040F804DB68467047034B1B685B685A69F6
:1003340002605861002070475C090020034B1B6871
:100344005B685A6912685A61704700BF5C090020F3
:10035400C460056146618761C0F81C80C0F82090C4
:10036400C0F824A0C0F828B0C0F82CD080ED0C8BC5
:1003740080ED0E9B80ED10ABC0F808E0FFF7D4BF12
:1003840008B5114B1B685A6853690BB926F0FAF982
:100394001968586051611846C468056946698769D7
:1003A400D0F81C80D0F82090D0F824A0D0F828B041
:1003B400D0F82CD090ED0C8B90ED0E9B90ED10AB03
:1003C400D0F808E0012070475C09002010B5002136
:1003D400044600F08DFA18B914B1204609F060F90A
:1003E40010BD002100F084BA10B50121044600F0CC
:1003F4007FFA18B914B1204609F052F910BDFFF77D
:10040400E5BF10B501220C4600F0C4FB18B914B1C5
:10041400204609F045F910BD00F0BCBB00F048BB14
:100424002DE9F0432A4C00254FF00309D4F86C72EF
:100434000021013143189A0803F00303BA5C5B00FE
:1004440042FA03F303F00303022BF2D0D4F8783218
:1004540009018A0803EB001009B300EB820150F88C
:10046400043B1A0719D1D4F87822934215D39A1A67
:10047400D4F87C624FEA921E120902F00307B342D9
:100484004FEA470709D2D4F86CC21CF80E8048FA28
:1004940007F303F00303012B08D08142DFD1ADB190
:1004A400013D04EB4503B3F88802BFE709FA07F7F7
:1004B40047EA080704EB45083F2D0CF80E709ABF75
:1004C4000135A8F88822C4F88432E6E7BDE8F08351
:1004D40030060020F8B521F00F052A1A02F1005267
:1004E400013A1649164CD300A1FB03235B0A9A0078
:1004F400591C073201EBD202A5EB83170144C4F85F
:100504007412C4F870320021C4F87872C4F86C0212
:10051400C4F87C5222F0B2F80A4B1B6858680121D7
:1005240000234FF0FF32C4F880320381C4F80C3347
:10053400A4F80813C4F81023F8BD00BFF32C23FA61
:10054400300600205C090020034B1B685A6813899D
:1005540001331381704700BF5C090020034B1B6803
:100564005A681389013B1381704700BF5C0900205E
:10057400034B1B685B681889003018BF0120704763
:100584005C090020F8B51D4B1D4D1B6859680B898B
:10059400002201330B8105F10804C5F80C23C5F8CA
:1005A400842205F5E076032754F8043F1A0719D18D
:1005B400D5F87802834215D3181AD5F87C124FEA7D
:1005C400901E000900F003028B424FEA420209D256
:1005D400D5F86C1211F80EC04CFA02F303F00303C1
:1005E400012B02D0A642DFD1F8BD07FA02F242EA9B
:1005F4000C0301F80E30FFF713FFF3E75C0900204A
:1006040030060020A1B32DE9F0411A4F0E46051F14
:1006140000244FF0030855F8043F1A0704F10104BD
:1006240019D1D7F87802984215D8181AD7F87C123D
:100634004FEA901E000900F0030299424FEA420279
:1006440009D9D7F86C1211F80EC04CFA02F303F072
:100654000303012B03D0A642DDD1BDE8F08108FAE3
:1006640002F242EA0C0301F80E30FFF7D9FEF2E77A
:10067400704700BF300600202DE9F04F534ED6F8E6
:100684007002D6F8843283B08000002513B3C6F814
:10069400845200284ED0002402E00134844215D252
:1006A400A208D6F86C1204F003038A5C5B0042FAD9
:1006B40003F303F00303032BEFD12046FFF7B0FE4F
:1006C400D6F87002013480008442E9D3D6F884322B
:1006D400002BDCD170B39C461D464FF00308022763
:1006E40006E0032B66D0012B30D00135854221D2A0
:1006F4004FEA950AD6F86C2205F0030412F80A10A2
:10070400640041FA04F303F00303022B02EB0A0E24
:10071400E7D1BCF1000FE8D008FA04F421EA04019F
:100724008EF80010D6F870020135800085424FF033
:10073400010CDDD3264B1B685A6813890021013B49
:10074400C6F88012138103B0BDE8F08F4FEAD50BD1
:10075400D6F8742212F80BC005F007094CFA09F018
:10076400C3075A44D8D52901D6F878024358084417
:1007740093B16A46B12108F01BF9009A3AB109F025
:10078400CBF99DE8030009F0A3F909F0DBF9D6F8E9
:10079400742212F80BC05A44012303FA09F32CEA19
:1007A400030C82F800C0D6F86C3203EB0A0E13F87F
:1007B4000A10B1E707FA04F421EA040102F80A1066
:1007C400D6F870024FF0000C80008EE7300600204F
:1007D4005C090020054B06491B685A6813890133DC
:1007E40013810023C1F88432FFF746BF5C0900205F
:1007F400300600203D4BD3F87812D3F87C222DE943
:10080400F047D3F87052D3F86C72521A0023026086
:100814001E46AD0043608360C3600361436183612E
:100824009C469E461C461A4699461946984617F811
:10083400093049000B4103F00303012B30D027D3C7
:10084400022B02D10136466001340132AA420ED095
:100854004FEA920902F0030117F809304FEA410AFE
:1008640043FA0AF313F0030301D0012BDFD1012C67
:100874001AD0022C2BD081698C4288BF8461AA4291
:100884001BD0012B27D04FEA920902F00301CEE7D7
:100894000CF1010CC0F808C00EF1010E1C46D4E79F
:1008A400013646601C46D0E7016901310161816966
:1008B4008C4288BF8461AA42E3D1C6450ED9AA42BC
:1008C400C0F80CE00AD0F0464FF0000EDBE74169B7
:1008D40001314161CFE7C645F6D9F0E736014FEA69
:1008E4000C1346608360BDE8F08700BF300600202B
:1008F4000F302DE9F04706095ED06B4B1B685B682F
:100904001B89002B58D1694DB5F80833002B01F031
:1009140001040CBF4FF0010C4FF0000C51D1D5F87D
:100924008012D5F87072B94239D2D5F86CE200233E
:100934000EEB01001AE001339E4254D912F00C0F61
:100944001ED101339E4240F2A58012F0300F1CD11B
:1009540001339E4240F2A18012F0C00F1AD101333C
:100964009E4240F29D800131B94218D210F8012B09
:1009740012F0030FDFD012F00C0F4FF00003E0D0A1
:1009840012F0300F4FF00003E2D012F0C00F4FF01E
:100994000003E4D00131B9424FF00003E6D3BCF1C7
:1009A400000F09D129F08AFDD5F88012D5F87072AC
:1009B4008F424FF0010CB8D84FF000084046BDE814
:1009C400F087D5F80C23D5F810339A42A7D329F031
:1009D40075FDD5F88012D5F870728F4288BF4FF03C
:1009E400010CA2D8E8E78900CA1A012B02F1010719
:1009F40001F1010C08BF4FEA9C034FEA970008BFBE
:100A0400C5F8803207F003034FEA43081EF800904C
:100A1400012303FA08F3023243EA090391420EF870
:100A2400003028BF4FF0020810D39008D5F86CE2CC
:100A340002F003031EF800905B0008FA03F301328E
:100A440043EA090391420EF80030EED2D5F878A2B9
:100A5400D5F80C334FEA0719ACEB07020AEB090887
:100A64001E44120140460021C5F80C6321F006FE25
:100A74006CB10023D5F874124AF80930FA0801233E
:100A8400885C07F0070703FA07F707438F544046CB
:100A9400BDE8F08789000131A6E789000231A3E7A8
:100AA40089000331A0E700BF5C0900203006002064
:100AB4001D4B1B685B681B89A3BB98B3F0B41B4E2A
:100AC400D6F87832D6F87452C01AC10904096B5C9E
:100AD40004F007070122BA4023EA02036B54D6F854
:100AE400802283099342D6F86C0238BFC6F880325C
:100AF400C15CA50804F0030303275B0007FA03F3B2
:100B040021EA030343550134D6F86C02A50804F026
:100B14000303415D5A0041FA02F202F00302022A81
:100B2400EBD0F0BC704700BF5C0900203006002009
:100B3400014610F00F001AD1154BD3F878229142D8
:100B440014D310B4D3F87C42A1420DD2891AD3F83D
:100B54006C428B090909E35C01F003025200134162
:100B640003F00303012B04D05DF8044B704700200D
:100B7400704701300B189A0803F00303A25C5B0072
:100B840042FA03F303F00303022BF2D00001EBE774
:100B9400300600202DE9F84F8A46002800F009812C
:100BA400894B1B685B681B89002952D0002B51D1EB
:100BB400864DD5F87842D5F87012A0EB04094FEAB7
:100BC40019177E1C89000AF10F0CB1424FEA1C1C54
:100BD40040F2F580D5F86CB29E464FF00108B40897
:100BE40006F003031BF804405B0044FA03F303F02C
:100BF4000303022B32D02BB90EF1010E0EEB0803C6
:100C04009C452DD8C4454BD02ED3C644F445044648
:100C14007DD807EB080167448F4288BF4FF0020E6E
:100C24000DD98A08D5F86C0201F00303865C5B00D9
:100C34000EFA03F3013133438F428354F1D1ACEB09
:100C44000802120104EB08100021264621F016FDCB
:100C540001E04BB300263046BDE8F88F08F10108E7
:100C64000136B142BBD1CDE7BC44644647444FF0A2
:100C7400030EA108D5F86C6204F00303725C5B00F8
:100C84000EFA03F3013422EA0303BC427354F0D195
:100C9400D5F880324FEA9C029A4238BFC5F88022C8
:100CA40006463046BDE8F88F484DD5F87812D5F899
:100CB4007462401AC1090409735C04F00707012235
:100CC400BA4023EA02037354D5F88032D5F86C6233
:100CD4008009984238BFC5F88002315C04F00303F0
:100CE400A00803275B0007FA03F321EA0303335444
:100CF4000134D5F86C62A00804F00303315C5A0097
:100D040041FA02F202F00302022AEBD0A2E74FEA10
:100D1400D911D5F87432595C07F007073941002A14
:100D240098D001F001015046FFF7E2FD0646002885
:100D340090D04FEA0812214621F05EFC224B1B683A
:100D44005B681B89002B86D1D5F87802D5F874E24C
:100D5400201AC10907091EF8013007F0070401220F
:100D6400A24023EA02030EF80130D5F88032840948
:100D74009C42D5F86C0238BFC5F88042015D07F08B
:100D84000303BC084FF0030E5B000EFA03F321EAE1
:100D9400030303550137D5F86C02BC0807F00303BD
:100DA400015D5A0041FA02F202F00302022AEBD07A
:100DB40051E701465046BDE8F84FFFF799BD9E46FE
:100DC4004FF001081EE700BF5C0900203006002038
:100DD40010B58AB0044603A8FFF70CFD0599049BDF
:100DE400039A00912046074900F066FF06A80DC843
:100DF4000999019000912046034900F05DFF0AB073
:100E040010BD00BF88D20208ACD202082DE9F84F09
:100E1400554F5649D7F87822804600F04DFFD7F851
:100E24007012890000F08680DFF87491DFF874A1F5
:100E340000251DE005F0030676004FEA950BD7F870
:100E44006C2212F80B3043FA06F606F00306022E63
:100E54006ED0032E6AD0012E43D02E224449404640
:100E640000F02AFFD7F8701201358900A94261D930
:100E7400A806DFD18D426BD2D7F86C024FEA950BEE
:100E840005F0030610F80B2076003241920722D1B8
:100E94002C4605E010F80EE04EFA02F2930708D152
:100EA400013404F003028C424FEA940E4FEA4202EA
:100EB400F0D1621B7F2A0ED992095146404600F0B8
:100EC400FBFED7F8703224F03F05B5EB830F31D227
:100ED4004FEA950B00262A014946404600F0ECFEF5
:100EE400ADE72B01D7F87822D258224B9A4229D069
:100EF400214B9A4228D0214B9A422FD0204B9A4220
:100F04001ED0204B9A421BD01F4B9A421ED01F4B1F
:100F14009A421BD01E4B9A4222D01E4B9A4221D099
:100F24001D4B9A4214BF68224D2297E76D2295E724
:100F34003D2293E740461949BDE8F84F00F04FBB06
:100F440053228BE7542289E74C2287E7412285E725
:100F540005F0030676004FEA950BBCE744227DE7D3
:100F640046227BE7422279E73006002040D202087D
:100F740084D20208242E0308A8210308EC180308CD
:100F8400AC2C0308F42A030848160308FC150308CC
:100F9400F81D0308341E0308182303085CD2020852
:100FA4007CD2020860D20208054B02681B6A5968A9
:100FB4008A4203D3521A0260184670471B68F6E748
:100FC40030060020014441F20553884204D398B20C
:100FD400002808BF0120704710F8012B03EB4313CE
:100FE4005340F2E7034B044A1A620022C3F8C421B7
:100FF400704700BF30060020C8E002082DE9F8431E
:1010040080460E46FFF7DEFF124B1C6A074614B9F2
:101014002046BDE8F883D4F80C9000254D4501D155
:101024002468F4E7236933F815309F420FD16369CC
:101034005B5D9E420BD104EB8503324641469869C1
:1010440021F030FB18B960682844BDE8F883013505
:10105400E4E700BF300600202DE9F04780460E4645
:10106400FFF7CCFF0246002840F08D80FF2E03D905
:101074004649474807F01EFD464CD4F8C401751C88
:10108400A0B1D4F8CC31D4F8C8112B448B420DD97B
:101094002944FFF7C1F90746F0B90246D4F8CC1148
:1010A400D4F8C401FFF7B8F9C4F8C471D4F8C43152
:1010B400F3B9802D2F4638BF80273846FFF791F9C2
:1010C400C4F8C40178B92846FFF78BF9C4F8C40101
:1010D40040B9284608F0E4FAD4F8C8312B44C4F8DF
:1010E400C831E3E72F460023C4F8C871C4F8CC31F3
:1010F400D4F8CC31D4F8C4711D44314640461F4461
:10110400C4F8CC51FFF75EFF4FF0000A4146054694
:101114003246384621F070FA07F806A0236AD3F85D
:101124000880DB6843451ED34FEA4809C9EB081021
:101134001830FFF756F918B9C4F8C4014846C9E78E
:1011440000F11803226A026003EBC803036103EB96
:10115400880343615368D268C0F80890134443601D
:10116400C0F80CA02062236ADA6819695B6921F867
:1011740012509E54911D236A43F82170D96858680F
:101184000131D96002441046BDE8F0874BEF0208F4
:10119400701C03083006002010B5044621F0A4FAA0
:1011A40001462046BDE81040FFF756BF07B502AB25
:1011B40043F8040D1846FFF7F7FE019A036933F864
:1011C400120003B05DF804FB07B502AB43F8040D4D
:1011D4001846FFF7E9FE019B4269D05C03B05DF855
:1011E40004FB07B502AB43F8040D1846FFF7DCFE19
:1011F400019B063350F8230003B05DF804FB13B5DC
:1012040002AB0C4643F8040D1846FFF7CDFE019BD4
:101214004269D25C2260063350F8230002B010BD4C
:101224002DE9F8431D46002303600B6013602B6017
:10123400164BDFF85C901C6A0746884616460CB1CC
:101244004C4505D12B68326813442B60BDE8F88304
:101254003B6801333B60E268D8F800301344C8F8B7
:1012640000306269E368D1188A4207D32046FFF749
:101274005FFC2B68246818442860E0E7336812F8A0
:10128400010B013303443360EEE700BF3006002056
:10129400C8E002082DE9F8430D4B0E4F1C6ADFF835
:1012A4003880DFF838900CB1BC4201D1BDE8F88336
:1012B400E36804F1180505EB8306B54201D32468FD
:1012C400F1E755F8042B4146484600F0F5FCF4E7F5
:1012D40030060020C8E0020844EF0208680703084B
:1012E400F0B51B4E0131002320250A780AB902709B
:1012F400F0BD120623D50BB1057001300A783346D0
:1013040002F07F0272B9013B044613F8012F12F078
:10131400800F04F101000ED002F07F02227001233D
:101324000131E2E71C46013394F90070002FF9DA29
:10133400013AD2B2E6E7044600F8012CE5E7012BB6
:1013440004BF057001300B78037001300223E7E716
:10135400F1D2020838B5446803680C449C4205463F
:101364000FD9037B1BB10021064807F0A3FB1034FF
:1013740024F00704083421468068FFF742F82C6003
:10138400A86038BD701C030870B504460E461146AB
:101394001546FFF7DFFFA06863682A463146184404
:1013A40021F056F962682A44626070BD70B54668DF
:1013B40004468E42354628BF0D460121FFF7CAFF79
:1013C400A368681C5919721B184421F041F9636819
:1013D400A06801336360284470BD38B50446002515
:1013E400002914BF0846012020606560FEF7EEFF67
:1013F4002573A06038BD38B505460C460131FFF7AA
:10140400ECFF6C6038BD00234360012301608260FF
:101414000373704738B514460546FFF7DEFF024BE9
:101424002560636038BD00BF8D130008037B10B5D1
:10143400044613B98068FEF7F1FF0023A36010BDD2
:1014440038B505461020FEF7C1FF29460446FFF7CC
:10145400C4FF204638BD10B5044648B1037B13B918
:101464008068FEF7DBFF2046BDE81040FEF7D6BFDC
:1014740010BD000038B5037B04460D461BB10021A6
:10148400064807F017FB016880682944FEF7B9FF96
:101494002368A0601D442560184438BD701C0308EF
:1014A40038B504460D46FFF755FF6368A0681D4430
:1014B4006560184438BD90E80C009A4210B50446A3
:1014C40002D10121FFF7D6FFA26863680021D1543D
:1014D400A06810BD10B50C460121FFF7E1FF0470B0
:1014E40010BD7F29F8B50D4604D80121FFF7D8FFB8
:1014F4000570F8BDB1F5006F4FEA911401F03F0695
:1015040009D20221FFF7CCFF64F03F0466F07F06A6
:1015140004704670F8BDB1F5803F4FEA11370ED222
:101524000321FFF7BDFF04F03F0467F01F0764F0D9
:101534007F0466F07F06077044708670F8BD04214E
:10154400FFF7AEFFAD0C07F03F0704F03F0465F072
:101554000F0567F07F0764F07F0466F07F0605706F
:1015640047708470C670F8BD38B5054608460C4609
:1015740021F0BAF8214602462846BDE83840FFF774
:1015840003BF10B51446FFF711FF047010BD10B56A
:101594001446FFF70BFF047010BD43688B4234BF41
:1015A40000235B1A4360704738B5154642688A4287
:1015B40004460B460ED929448A4201D8436038BDFB
:1015C4008068D21A521B0144184421F041F8626821
:1015D400521B626038BD0846114621F00FBF70B53A
:1015E400054608460E4621F07FF8044620B102461F
:1015F4006B68286831469847204670BD2DE9F74F3F
:1016040001919DF8301091460D9A11F0DF0F0646B6
:10161400A2EB09023DD030290CA9244F0EBF4FF094
:1016240010080F464FF0010813F0800435D002244F
:1016340092FBF4F4151B002C36DDA246D045C346BC
:10164400A8BFD346736830685A463946AAEB0B0ADA
:101654009847BAF1000FF1DCB9F1000F05D07368B7
:10166400019930684A4698474C44002D0DDD2C44BE
:10167400A845C146A8BFA946736830684A4639469A
:10168400A5EB09059847002DF2DC204603B0BDE820
:10169400F08F074F4FF01008C6E713F0010501D192
:1016A4001446C8E71546D7E70024D5E78C07030896
:1016B4007B0703082DE9F04389B00746119D9DF887
:1016C4004880139E42BB00228DF80F2051BB08AC0A
:1016D400302304F8013D15F040099DF80F303FD048
:1016E400002B46D001220192CDF800802B460DF14B
:1016F4000F013846FFF782FF013E814608AA019692
:10170400CDF800802B46121B21463846FFF776FFA2
:10171400484409B0BDE8F083002919DA2D228DF878
:101724000F204942109A08ACA2F10A0E0DF1100CD8
:10173400B1FBF3F003FB1012092ACCBF7244303220
:1017440004F8012D64450146C5D00028F0D1C2E754
:10175400A80701D52B22B7E76A07B4D52022B3E73F
:10176400002BCBD004AA9442C8D904F8013C013C14
:10177400C4E79946C2E700002DE9F04F91B011F09B
:10178400010F8246884691461A9D9DF86CB01C9FB5
:101794001D9E0ED111F0030F03D10A6882498A42BB
:1017A40007D04046059308F0E9FE059B400040F051
:1017B400010815F0810206D1BBF1300F03D1B74205
:1017C400B8BF37461646404605930BF0EFFC002899
:1017D40008A9059B17DBAC0711D52B228DF8202017
:1017E4000DF12104EA061DD5B9F1020F0DD12246EF
:1017F400302002F8020B581C6070144612E068078F
:1018040001D52022EAE70C46ECE7B9F1080F3ED1F6
:10181400A8054FF03002227045BF03F10E0262703A
:1018240001340234611A002215F0200F05910CBF17
:1018340011462C21012E0CA8C8BF45F0400522708A
:101844000990DBB2102015F040040A900B928DF839
:101854001F200391029324D00192CDF800904346B7
:101864000BAA0AA909A80BF075FB03782D2B814656
:1018740071D10B9C8DF81F30013C012E00F1010940
:101884000B9400F38D804FF00008444617E0B9F143
:10189400100FC7D12246302002F8020B03F11700C3
:1018A400AAE708AB0193CDF8009043460BAA0AA916
:1018B40009A80BF04FFB012E814647DCA0466906C0
:1018C4001BD59DF81F3053B10122002301920093D0
:1018D4000DF11F015046FFF791FE013F0444059BA3
:1018E4005BB10123019300230093059A08A9504694
:1018F400FFF784FE059B0444FF1A012EC8BF374638
:101904000197CDF800B02B460B9A49465046FFF795
:1019140075FE0444B8F1000F0AD02023009300237D
:10192400CDF804801A4621495046FFF767FE044467
:1019340009980CAB984201D0FEF770FD204611B017
:10194400BDE8F08F4FF00008444619E00B9CB44208
:10195400B8BF34460BE0012E95DD0B9C9DF81F307B
:10196400B442B8BF344603B10134059B1C44A742BA
:10197400E8DD15F00108A7EB040401D0A04600241B
:1019840025F001054CB120230093002301941A464D
:1019940006495046FFF732FE04464FF0300B8EE7FF
:1019A400B442B8BF3446DFE750200308E06A0308B6
:1019B4002DE9F04316468BB0B20780469946129F34
:1019C4003DD416F0040F0CBF0023202300930A46D5
:1019D400139B202102A806F0EBF8F30504460DD56D
:1019E400431C1F2B0AD80AAA1444252204F8202CCD
:1019F4000AAA1A44002102F8201C1C4616F04005CD
:101A04001FD09DF808302F2B4FF000031BD8012264
:101A140002A9019200934046FFF7F0FD013F0546FD
:101A2400013C0DF109010197CDF80090334622469F
:101A34004046FFF7E3FD28440BB0BDE8F0832B23B9
:101A4400C4E702A9EFE702A91D46ECE72DE9F04F30
:101A5400824689B0144600250E46334613F8012BFE
:101A6400D2B9B14208D2771ADAF80430DAF80000B1
:101A74003A4698473D4431460B78002B00F01381D9
:101A8400013120224FF000090B780E46481C3BB967
:101A940098464FF0FF3345E0252AE2D01E46DCE7A6
:101AA4002D2B03D149F001090146EDE72B2B02D17F
:101AB40049F00209F8E7202B02D149F00409F3E7C1
:101AC400212B02D149F00809EEE7302B1CD04FF04E
:101AD40000080A270E4611F8013BA3F1300009283B
:101AE40016D92E2BD5D173782A2B16D000234FF07C
:101AF4000A0E0E4611F8010BA0F13007092F11D878
:101B04000EFB0303303BF4E749F040091A46CBE7E8
:101B140007FB0838A8F13008DCE72368023623EA1B
:101B2400E373043431786C2908BF01363778002F09
:101B340000F0B980642F00F08D8029D8502F2ED06A
:101B44000ED8A7F14501022940F29480DAF8043056
:101B5400DAF800000122314698470135A34651E0E6
:101B6400622F42D055D8582FF0D17B1C27F00F0795
:101B74000F3F03F00603FFB204F1040BCDF80C8011
:101B84000292CDF804900097C3F1100300226CE098
:101B9400712F49D00ED8672F6CD9702FD6D16123FD
:101BA400009304F1040BCDF80C800292CDF804905C
:101BB4001023EBE7752FD8D0782FD6D0732FC5D14B
:101BC40004F1040B246805932046049220F08CFD54
:101BD400059B5A1C049A02D0984228BF18468DE8E7
:101BE40004014B460246214608E0236804F1040B35
:101BF4008DE804014BB12E494B4604225046FFF7B1
:101C0400FDFC0544711C5C4626E74B460522294928
:101C1400F4E708A9236801F8043D04F1040B8DE8F6
:101C240004014B460122E9E707A9206805930492C1
:101C3400FFF7E5FA059B049A0146581C04F1040BCE
:101C440003D00798834238BF07938DE804014B46BD
:101C5400079AD3E761230292009304F1040BCDF8B1
:101C64000C80CDF804900A23012221685046FFF726
:101C740021FDC6E7073424F00704D4E900010593E5
:101C840004922BF0E3F8049A059B019300EE100AEA
:101C94001346CDF800804A463946504604F1080BF5
:101CA400FFF786FEADE7284609B0BDE8F08F00BF18
:101CB40070070308750703080EB403B503AA52F8A6
:101CC400041B0192FFF7C2FE02B05DF804EB03B0FF
:101CD400704703781A060AD503F07F0340221342A3
:101CE40007D110F8012F02F0C001802905D0184651
:101CF400704723EA02035208F1E702F03F0242EA86
:101D04008313EEE7421C10460132037803F0C0034C
:101D1400802BF8D070470023814201D818467047C1
:101D240011F8012D02F0C002802A18BF0133F3E735
:101D340001440346002099421A4600D8704712789D
:101D440002F0C002802A03F1010318BF0130F2E758
:101D54007F289DBF024B185CC0F3400000207047F1
:101D64009D0703087F289DBF024B185CC0F3C00089
:101D7400002070479D0703087F289DBF024B185C15
:101D8400C0F38000002070479D0703087F289DBF93
:101D9400024B185CC0F38010002070479D070308B5
:101DA4007F2809D8064B1B5C13F00C0F06D1A0F159
:101DB4005F03584258417047002070470120704724
:101DC4009D0703087F289DBF024B185CC0F30010D9
:101DD400002070479D0703087F289DBF024B185CB5
:101DE400C0F34010002070479D07030808B5024661
:101DF400FFF7E8FF00B12032104608BD08B50246DF
:101E0400FFF7EAFF00B1203A104608BD3038092830
:101E140084BF20F020000738704710B50144024603
:101E2400E5240020914203D8B0FA80F0400910BDA7
:101E340012F8013B30B103F0C003802B11D10138FB
:101E4400C0B2EFE7BF2B09D9F72B09D8DB0803F0A1
:101E5400060344FA03F303F00300E3E71B06E1D5AA
:101E640010BD0020FCE7023981420B4603D31A88D7
:101E74000239002AF8D00233181A4010704770B59E
:101E84001C09944215D2121B01EB4401154603F0C0
:101E94000F030E46012D31F8024B18BF3468DC40A5
:101EA400A4B2013D20F8024BF3D104B9013A104623
:101EB40070BD0022FBE7F0B5059C0025121B2E46E1
:101EC400AC420FD164000519023C0C442F46114664
:101ED40099B905EB420316B125F812600233181ABA
:101EE4004010F0BD31F8157033F815E077443E44E6
:101EF40020F81560360C0135E2E734F8023F1E4441
:101F040027F8026B0139360CE2E7F0B4049C002593
:101F1400121B2F46AC420BD164000519023C0C4441
:101F2400134629467BB905EB4201F0BCFFF79BBF82
:101F340031F815603E4433F81570F61B20F815602F
:101F440037140135E6E734F8026F3E4421F8026B9A
:101F54003714013BE6E72DE9F043079C089F099EEF
:101F6400DDF828C0551E023986464FF6FF78A4EBEB
:101F740002096C1C09D100EB420117B120F8127060
:101F84000231BDE8F043FFF76EBF31F8024F44441D
:101F9400264409EB0504A5422ABF1C884FF6FF74AA
:101FA4004444644486EA040C17FA8CF72EF8027B46
:101FB40028BF02334FEA144C360C3F0C013DD8E7DE
:101FC40010B5044638B18068FEF728FA2046BDE80B
:101FD4001040FEF723BA10BD38B5022904468068C4
:101FE40038BF02210D4618B12368B1EB930F07D90E
:101FF4006900FEF706FA2368A06065F39F03236077
:1020040038BD38B505460C20FEF7E0F92A78037888
:1020140062F300036FF341030446037028682368E6
:10202400C0F39D0060F39F0323606B68636040000E
:10203400FEF7CCF9A0602A68A968C2F39D02520099
:1020440020F0DAFA204638BD10B54B0018441A4483
:1020540009B9084610BD30F8023D32F8024D1B1B89
:10206400002B02DB04D10139F2E74FF0FF3010BD41
:10207400012010BD38B505460C460221FFF7ACFF20
:102084002B78002CB5BF43F001036FF300032B70D2
:102094002B704FF00003B8BF64426B6004B938BDC5
:1020A4006B68AA68581C686022F81340240CF5E792
:1020B400037803F0FE036FF34103037003686FF3C7
:1020C4009F030360002343608360704728B1037853
:1020D4009B0702D48068FEF7A1B9704738B505465E
:1020E4000C464968FFF778FF22782B78A86862F3DA
:1020F40000032B7063686B606268A1685200BDE8DE
:10210400384020F079BA0A4629B90178426062F36E
:10211400000101707047FFF7ADBF08B5FFF7C8FFB6
:10212400BDE80840FFF7EFBF30B40578816005F0E3
:10213400FE0545F002050570056862F39F0500225F
:1021440005604260194630BCFFF7DDBFF8B50446B0
:102154009DF8185004211F461646FFF73DFF2378CB
:102164007DB1002E77F100020BDA43F001037642D1
:10217400237067EB47070021616056EA070304D127
:10218400F8BD6FF300032370F5E76168A0684D1C88
:10219400656020F81160310C41EA0741380C0E46A5
:1021A4000746EAE710EE102A0378D10F61F3000323
:1021B4002DE9F0410370C2F30F4313F4FF430546C6
:1021C40007D12B786FF300032B7000236B60BDE8FD
:1021D400F081B3F5FF4FF4D0C2F3C754A4F17F03E9
:1021E400002BEEDB04D10121BDE8F041FFF742BF33
:1021F400162BC2F31602D8BF4FF00008A4F16F06E5
:102204004FF0100142F4000796FBF1F6D3BFC3F17F
:1022140017030933963C4446C8BF94FBF1F4314696
:10222400D4BFDF4003F00F08FFF7D6FE6E6024B181
:1022340062000021A86820F021FAB8F1000F08D04C
:10224400AB6807FA08F223F81420C8F11003DF4042
:1022540001346300B44201D1BDE8F081AA680134BD
:10226400D7523F0C0233F5E72DE9F84304468F18A3
:10227400C2F35B020D469846511C089EFFF7ACFE64
:102284002278B8F1000F0BD042F001020023227033
:1022940063602846B1B2B84205D3401BBDE8F88359
:1022A40068F30002F2E70278A2F13003092B00F18F
:1022B400010E05D9A2F14103192B15D8A2F1370358
:1022C400B342EAD2A068D4F804C09BB26246804606
:1022D4008AB900EB4C0213B120F81C300232121AF6
:1022E400521062607046D6E7A2F16103192BD4D86C
:1022F400A2F15703E4E7B8F8009009FB013328F88A
:10230400023B013A1B0CE3E7F8B5044615461E46AA
:10231400C1B1531E1E444FF0FF37E9000F310909C4
:102324002046FFF759FE237800216FF30003237042
:1023340061604DB9A068616800EB4101FFF793FD4E
:102344006060F8BD0127E8E700230F2908DC327834
:102354008A401343013D9BB201F108013E44F4D18C
:102364006268501C6060A068103920F81230E0E701
:1023740038B50B780578044603F0010305F0010035
:10238400181A0A460BD161685368994208D30AD8CF
:102394009268A068FFF758FEEB0748BF404238BD7B
:1023A4004FF0FF30F8E70120F6E7884210B5044605
:1023B40001D0FFF793FE23786FF30003237010BD61
:1023C400884210B5044601D0FFF788FE63683BB12C
:1023D4002378C3F30002C2F1010262F30003237005
:1023E40010BD88421FB5044601D0FFF777FE62682E
:1023F40062B901212046FFF7EFFDA2680123138093
:102404006360237843F00103237010E02378D90735
:102414000FD56FF30003A16823700123ADF80E30CC
:10242400009308460DF10E03FFF76FFD606004B0E2
:1024340010BD511C2046FFF7CFFDA168626801233F
:10244400ADF80E30009308460DF10E03FFF733FD8F
:102454006060D6E72DE9F0470F4649680646154601
:1024640001B12AB939463046BDE8F047FFF736BE18
:1024740002F10F0424092144FFF7AEFD7968B36823
:10248400B8686FF0004E04EB010815F00F026FF00E
:10249400010C08EB0E054FEA45050CFB01FC8E44CC
:1024A4000CEB4E0E08BF10222B44704499464FF09B
:1024B400000EC2F1100209BB2EFA02FE03EB0C0956
:1024C40023F80CE06300C3F1020304F100429944D1
:1024D400013A4846520020F0D1F80235A944B8F137
:1024E400000F02D039F8023DA3B1C6F804803A784F
:1024F400337862F300033370BDE8F08730F811A03D
:102504004AEA0E0E2EFA02FA29F802A94FEA0E4EF2
:102514000139D0E708F1FF38E1E7F0B50E46496824
:1025240085B00546144601B12AB931462846FFF75D
:10253400D5FD05B0F0BDFFF74FFD23467268B168C5
:10254400A868FFF79CFC686031782B7861F300037E
:102554002B70DB070246ECD500237068ADF80E3013
:102564002109834202D08B4213D103469942E0D21F
:10257400B36804F00F0433F81110012303FA04F4D0
:10258400013C214218BFADF80E30BDF80E304BB9F6
:10259400CFE7B76837F813707FB101238142ADF8F4
:1025A4000E30E5D30123A9684AB1009308460DF122
:1025B4000E03FFF780FC6860BBE70133D1E70B80B3
:1025C4006B60B6E773B553680C4649689942064692
:1025D400154606D308D89268A068FFF735FD002891
:1025E40002DA23462C461D4623782A786168534034
:1025F400DB0719D401313046FFF7EEFC6B6800931A
:10260400AB686268A168B068FFF755FC70607268D7
:102614002378002A0CBF002303F00103327863F30C
:102624000002327002B070BD3046FFF7D5FC6B6813
:102634000093AB686268A168B068FFF766FCE5E7E1
:10264400F7B553680C46496899420546164606D3C1
:1026540024D89268A068FFF7F7FC00281EDA234606
:10266400012734461E462378327861685340DB07DD
:1026740016D501312846FFF7AFFC73680093B368A1
:102684006268A168A868FFF716FC68606A682B781E
:1026940092B962F300032B7003B0F0BD0027E2E7A8
:1026A4002846FFF799FC73680093B3686268A168D1
:1026B400A868FFF72AFCE8E72278002FE9D0C2F3E4
:1026C4000002C2F10102E4E72DE9F04F16464A6820
:1026D40073689A420C463EBF34460B461E46237826
:1026E400DA0785B0054623D4337813F001071FD1E8
:1026F4006168FFF771FCA868A468D6F808E07168FF
:102704003B4699420BD100EB4101FFF7ACFB2B7820
:1027140068606FF300032B7005B0BDE8F08F34F8E8
:1027240013203EF81360324020F813200133E8E709
:10273400616828460131FFF74FFC22783178D4F8DC
:1027440004E0A868D6F8088082EA0103DB4303F0BA
:1027540001035F420093A368BFB202F00102A3F138
:10276400020A7368029701F001015742BFB2C1F136
:10277400000CA3EB0E0301971FFA8CFC0EF1FF373C
:10278400814603937B1C14D1009B00EB4E011BB1CB
:10279400012320F81E300231FFF765FB68603278B0
:1027A4002378C2F3000213402A7863F300022A70EC
:1027B400B2E73AF802BF019B8BEA030B039B5A442E
:1027C40003EB070BBB4598BFB8F800B0029B94BF5E
:1027D4008CEA0B0BE346594402EA010B8BEA030B28
:1027E400009B13FA8BF329F8023B4FEA134398BF7B
:1027F40008F10208090C120C0093013FC2E72DE90D
:10280400F84F17464A687B689A420C463EBF3C46DE
:102814000B461F462378DA07064631D43B7813F07B
:1028240001052DD16168FFF7D7FBA1687A68646858
:10283400B068D7F808E0A41A2B469A4211D1520086
:102844008318023A0A441D46214699B903EB44030E
:102854001B1A5B107360337861F300033370BDE8B7
:10286400F88F31F813503EF813703D4320F813509D
:102874000133E2E732F8027F25F8027B0139E4E70D
:10288400616830460131FFF7A7FB257897F800E02F
:1028940061687B68B068A468BF6805F001050EF044
:1028A400010EC5F10008CEF1000C1FFA88F81FFADA
:1028B4008CFC4A1E023C82464FF00109A3EB010B3B
:1028C400531C08D100EB4101FFF7CDFA3378706057
:1028D40043F00103C2E734F8023F83EA08031D44CE
:1028E4000BEB0203934296BF3B8863468CEA0303D7
:1028F4009E4445EA0E036FEA030319FA83F398BF73
:1029040002372AF8023B4FEA1E4E2D0C4FEA1349B8
:10291400013AD5E7F0B516464A6873689A4238BF5B
:102924000B460C463CBF34461E4627783378616814
:102934005F4017F0010785B005463BD1FFF74CFB1C
:10294400237813F0010329D172686168A868A76825
:10295400D6F808E0891A9A4211D152008418023A32
:102964003A440B4626469BB904EB4101FFF77BFA38
:102974002B7868606FF300032B7005B0F0BD37F857
:1029840013403EF81360744020F813400133E2E72B
:1029940032F8027F26F8027B013BE4E703970297B3
:1029A400019773680093B3686268A168A868FFF729
:1029B400D2FADDE70131FFF70FFB3378A868DB4378
:1029C40003F0010303932378DB4303F00103029331
:1029D4000123019373680093B3686268A168FFF7E9
:1029E400BAFA2B78686043F00103C5E72DE9F04F8C
:1029F4004B6885B004460E4615460BB1536843B97F
:102A040023786FF3000323700023636005B0BDE8EF
:102A1400F08F814207D1FFF7F4FAB542074600D19F
:102A240005463E4605E082422DD1FFF7EAFA074605
:102A340005466B68716820461944FFF7CDFA226891
:102A4400A068C2F39D02520000211FF017FEB36874
:102A5400D6F804E0D4F808A002936FF0010303FB56
:102A64000EF3D5F808806A6803930AEB4E01002040
:102A7400039B03EB010C42B3029BCDF804E0A3F1EA
:102A84000209002310E00027D3E739F8020FB8F851
:102A940000B00BFB0033BCF800B001985B44013874
:102AA4002CF8023B01901B0C01980028EDD108463C
:102AB40001F1020C0BB10B806046A0EB0A00401040
:102AC400013A08F102086146D2E760603378297858
:102AD4004B4013F0010F237838460CBF62F3000318
:102AE40043F00103237005B0BDE8F04FFFF768BA67
:102AF4004B6870B50546144613B11378DA0706D54A
:102B04002B786FF300032B7000236B6070BD636838
:102B140023B90121BDE87040FFF7ACBA0846FFF7BE
:102B240070FA06462046FFF76CFA0121044628464F
:102B3400FFF7A0FA636883B1A3681B88DB0704D599
:102B4400324629462846FFF751FFA16862680123EF
:102B54000846FFF794F9606038B93046FFF730FA59
:102B64002046BDE87040FFF72BBA32463146304666
:102B7400FFF73CFFDEE72DE9F04F0C4651688FB0BC
:102B84001646013105460293FFF726FA7268A868D3
:102B94000132520000211FF071FD2B786FF3000306
:102BA4002B7000236B60716820460131FFF714FA23
:102BB40031462046FFF792FA029BD4F804809F68BE
:102BC4005B680193AB680393019BD4F808A0434569
:102BD40039D83AD33A4641465046FFF735FA0028E9
:102BE40030D1039A6060012313806B60237862689C
:102BF400002A0CBF002203F0010262F30003029AD0
:102C04002370337812785340DB0718D56B682A7821
:102C1400003318BF012363F300022A70636873B1A1
:102C24004FF0FF310BA8FFF778FA0BAA2946284684
:102C3400FFF7C8FC029A21462046FFF7C3FC0FB0F9
:102C4400BDE8F08F01DA0023CFE7019B03F10040D8
:102C540001384FEA400937F81020002312F4004FDE
:102C640003F1010157D04FEA480202F1020C049229
:102C74004FF0000E0AEB0C0208F101019BB22AF896
:102C840018E005926160D446C3F1100B059A94458F
:102C940045D3019A37F81000012A00FA03FB09D939
:102CA40007EB0900C3F1100E30F8020C20FA0EF005
:102CB4004BEA000B0198049A091A6960039801F120
:102CC4000041013900EB410106916FF00101A1EBD4
:102CD40009010991B91E524408916168049104984C
:102CE4000199814228D300F1004B0BF1FF3B0AEB21
:102CF4004B0B0020C3F11007DA4571D96FF0004186
:102D04006B682BB15A18039830F81220002A71D03E
:102D14006FF0004173E0520092B20B469EE7BCF89C
:102D2400008008FA03F242EA0E0E2CF802EB28FAAD
:102D34000BFE1FFA8EFEA9E7108832F8021C41EA46
:102D440000410998B1FBFBF1101805900027089881
:102D5400DDF814E00790B84672450BD81088074494
:102D6400BFBB069820F80219049906900139023A6B
:102D74006160B2E70798BEF8009030F802CF079080
:102D84000CFA03F040EA18481FFA88F0484319FA8D
:102D940087F91FFA80FC000CA9EB0C0CC0EB274050
:102DA4002EF802CB00EB2C47D6E739F802CF0CFA09
:102DB40003FC4CEA1848B0F800C01EFA88FEE6444A
:102DC40020F802EB4FEA1E4E8242EED877440139D6
:102DD400C6E74FF0000EDDF820900598F046F3E7C3
:102DE400BBF8002042FA03F10143BA402BF8021960
:102DF40090B281E7013B6B6082E7013B63606368EB
:102E0400002B3FF4F3AE5A183AF81220002AF4D0FB
:102E1400ECE6F0B51F464B6885B004460D461646F1
:102E24004BB11378DA0706D47B68012B0BD1BB684E
:102E34001B88012B07D123786FF300032370002331
:102E4400636005B0F0BD01212046FFF713F97368F4
:102E5400002BF6D02846FFF7D4F805463046FFF796
:102E6400D0F8064601A8FFF723F97368B3B1B36835
:102E74001B88DB070AD52A4621462046FFF7B6FD04
:102E84003B462246214601A8FFF775FEB1687268E9
:102E940001230846FEF7F3FF706048B901A8FFF765
:102EA40015F92846FFF78CF83046FFF789F8C8E78C
:102EB4002A4629462846FFF799FD3B462A462946D5
:102EC40001A8FFF758FED0E710B5816842680023D7
:102ED40001EB4202914205D30278D20748BF5B421C
:102EE400184610BD32F8024D44EA0343F2E730B508
:102EF40042688468002304EB4202944206D30278B9
:102F0400D20748BF5B420B60012030BDB3F5004FD0
:102F140004D232F8025D45EA0343EEE7002030BDF7
:102F24002DE9F0470746D9B19818BC68D7F8048052
:102F34000025A4F1020E4FF0010A2E4603EB02090C
:102F4400B8F1000F0ED1A9B3C21A18463B7813F09A
:102F5400010F14BFFF210021BDE8F0471FF08EBB15
:102F64001846E2E73EF8024F103644EA0545072EBC
:102F740002DC08F1FF38E3E797F800C0ACB21CF0BC
:102F8400010F1FBFE4435AFA84F4A4B24FEA142A8F
:102F940039B100F1FF3C634500F8014C06D1BDE8AE
:102FA400F08700F1010CCC45047006D0083E2D0AD0
:102FB4006046DCE713441A1AC8E7BDE8F08700004E
:102FC400826843689FED0C0A9FED0C7A02EB430381
:102FD4009A4205D30378DB0748BFB1EE400A704735
:102FE40033F8021D07EE901AF8EEE77AE0EE077A5E
:102FF400B0EE670AECE700BF000000000000804765
:103004002DE9F84F44689DF828A00B9D8046894619
:1030140016469B4694B97AB1561E284616F8013FC7
:103024003BB930230370002300F8013F401BBDE887
:10303400F88F00F8013BF1E72846F2E764002046E8
:10304400FDF7C4F922460746D8F808101FF0D4FA51
:10305400ABF13A0B28462A4607EB040EAEF1020305
:1030640000219F4233D93031392988BF5944541C37
:1030740011703B469E45194633D8BAF1000F08D06B
:103084000123211A032902BF941C82F801A02046BF
:10309400DBB13846FDF7C2F93EB130461FF024FBE0
:1030A40023463044B0421C4624D898F80030DB074D
:1030B40042BF2D2323700134631E2A469A421ED335
:1030C40000232370601BBDE8F88F2246C6E71C88E6
:1030D40044EA0141B1FBF9F423F8024909FB141154
:1030E400BFE7098802330029C4D0BAF1000FECD03D
:1030F4000023C6E710F8012D03F8012BD2E711785D
:10310400187802F8010B03F80119D7E78368C2683D
:1031140093423DBF5A1C826018784FF0FF307047CD
:10312400036810B5044613B14068FDF777F92046EB
:10313400BDE81040FDF772B9F8B5054610200C46FD
:103144001F461646FDF742F9054B4460846034443B
:103154000760C4606B60034B2860AB60F8BD00BFC0
:10316400113100082531000803690A2B10B5044603
:1031740035D1836A013383620123A269E3626369FF
:103184006261226F2361002A31D0616E8A423FBF9F
:10319400501CA16E20678A5C28BF0022A2613BB943
:1031A400E2692261226A6261626AA26163662367DC
:1031B40063690D2B08D10A236361A3690A2B03D128
:1031C400A36860689847A061A369013306D1636965
:1031D4005A1C03D00A2B1CBF0A23A36110BD092B60
:1031E400C36A04BF073323F007030133C5E7A368A9
:1031F40060689847A061DBE770B504460E46002579
:103204002069431C01D1284670BD0A2808D116B193
:10321400636B002BF7D02046FFF7A6FF0125EFE7ED
:10322400FEF796FD18B12046FFF79EFFE8E72369F5
:10323400232B08D12046FFF797FF23695A1CDFD0C0
:103244000A2BF7D1DCE75C2BDDD163690A2BDAD1D9
:103254002046FFF789FFE6E70369272B29D0222BB5
:1032640027D0A3F1620113299DBF194ACA40D24352
:103274000122D20704D44269272A1AD0222A18D05C
:10328400722B1DD14269662A06D18269272A10D081
:10329400222A0ED0722B0ED14369622B15D180697C
:1032A400272806D0A0F122035842584100F001001B
:1032B40070470120FAE7622B07D14369722BEDE7CF
:1032C400662BF8D14269722ADFD00020EEE700BFF6
:1032D40011000900436E2DE9F74F0446A3B1036FB3
:1032E40093B929216030FEF7F5F82369E361636936
:1032F4002362A3696362A36E1A7822615A786261B9
:103304009B78A36103232367002161652046FFF7AF
:1033140073FFA36A6364236BE56AA564002B04DA74
:10332400082284F84C20013304E007D0072284F8F3
:103334004C20013B236303B0BDE8F08F002832D05A
:10334400636B83BB0623E26B84F84C306FF000435D
:10335400206CD118013D30F811108D42EBD017D9F3
:10336400A16B8A4207D308314900FDF74AF8A36BE1
:1033740020640833A363E36B226C591CE16322F8D5
:103384001350236BCFE7013AE263226B013A2263C5
:10339400E26BD11830F811108D42F4D3CBD0022354
:1033A40084F84C30C7E725696E1C01D10023F7E788
:1033B4002046FFF751FF0746002800F0B1810023A3
:1033C40084F84C302369752B6BD0622B07D1636969
:1033D400722B6AD04FF001080D23002511E0722BE7
:1033E40006D16369622B60D0662B64D10523D7E7CD
:1033F400662B65D16369722BF8D03D464FF0010806
:103404000C23002694F84C20002A5FD184F84C3019
:10341400B8F1000F08D02046FFF7A6FEB8F1020F5E
:1034240002D12046FFF7A0FE23692046222B0CBFC1
:103434004FF022094FF02709FFF796FE23694B4509
:1034440047D16369994544D12046FFF78DFE204654
:10345400FFF78AFE4FF0030825B1AE4904F160007E
:10346400FEF782F84FF0000B04F1600A2269511C48
:1034740000F04A81B8F1010F02D10A2A00F0448118
:10348400C34529D3594604F15000FEF786F80121BB
:103494002046FFF7B1FE2046FFF7DEFE002891D15B
:1034A40049E74FF001080C2397E73E464FF0020826
:1034B4000D230025A6E73E464FF001080C23F8E74C
:1034C4004FF000080C23454646469BE793429FD0A5
:1034D40031E74FF00108BFE791451CD1494604F19B
:1034E40050000BF1010BFDF7FCFF2046FFF73CFEFB
:1034F400BCE72046FFF738FE21697B2920D104F17F
:103504005000FDF7E7FF2046FFF72EFE7B2104F174
:103514005000FDF7DFFF21690DB17B29E9D05C295B
:1035240040F0F08020460091FFF71EFED4F810B062
:103534000099002E41D004F15000FDF7D2FFB1E014
:1035440028215046FDF7C6FFD4F864B00022216953
:10355400481C04D0EAB93A2901D07D2919D1A16EB9
:10356400626E881810F8010C3D2809D1A2EB0B02F9
:10357400594404F15000FDF707FF636E013B636695
:1035840050462921FDF7A6FF2C215046FDF7A2FF46
:10359400BCE721F020005B280AD10132C9B25046B1
:1035A4000092FDF797FF2046FFF7DEFD009ACEE775
:1035B4005D2808BF02F1FF32F0E7BBF1620F00F0B3
:1035C400BF8137D8BBF14E0F00F08B801ED8BBF102
:1035D400220F4BD0BBF1270F48D0BBF10A0F4ED0BE
:1035E400ABF1300007287FD8834603226169303964
:1035F400072957D8013A55D020460092FFF7B4FD69
:103604002169009A303901EBCB0BEFE7BBF15C0F7A
:103614002CD0BBF1610F00F09B81BBF1550FDFD1C2
:1036240094F84C200D2A33D15C2104F15000FDF7AD
:1036340058FF1BE0BBF1740F00F085810BD8BBF180
:103644006E0F11D0BBF1720F1FD0BBF1660FC7D143
:103654004FF00C0B0AE0BBF1760F13D0E0D3BBF1B3
:10366400780FBDD1022218E04FF00A0B94F84C20D9
:103674000C2A3BD1594604F15000FDF732FF4FF0BC
:10368400000B32E74FF00B0BF0E74FF00D0BEDE7BB
:10369400BBF1750F14BF082204224FF0000B12F186
:1036A400FF3209D2BBF1FF3FE9D01B4B9B45DDD96B
:1036B400012384F84C30E2E720460192FFF754FDE1
:1036C400216900910846FEF761FB002800F0338170
:1036D40000990846FEF79AFB4FEA0B1B8344019AB4
:1036E400DDE70E4806F0C6F95C2124E7BBF1FF0FC5
:1036F400DED80D2ADCD15FFA8BF104F15000FDF71E
:10370400E9FEBCE7C9B2F8E7C3453CBF032284F82D
:103714004C20B7E662080308FFFF10006B0803089B
:103724002846FEF71FFB054620691DB95F2801D016
:103734007F283ED9092384F84C3004F15005C1B2E6
:103744002846FDF7C7FE2046FFF70EFD2069421C00
:103754001BD12846FDF7AFFE7F4F0646002557F8DC
:10376400251030461EF0CAFF00281CD10F35EDB2DB
:10377400122D84F84C507FF4DEAD784BD3F8D03161
:10378400002B14BF0F2311230AE6FEF7EBFA40B90E
:1037940020695F2805D07F2803D8FEF7EDFA0028BA
:1037A400D7D0217CCCE7FFF6C6AD0135242DD6D188
:1037B400C1E5FEF7E1FAA8B923692E2B0DD0684DB7
:1037C40000262F7817B12369BB4263D12046FFF747
:1037D400CBFC002F66D10123E2E56069FEF7CCFA49
:1037E4000028ECD021692E2929D10B2384F84C30F0
:1037F40004F150063046FDF774FE2046FFF7B4FC92
:103804000B272069431C3FF496AD55BB652801D0B6
:10381400452826D16521304684F84C70FDF761FEB9
:103824002046FFF7A1FC21692B2901D02D29E8D1DD
:103834003046FDF756FE2046FFF796FCE1E70A23E3
:10384400302984F84C30D3D1636943F02003623BC0
:10385400162B9EBF434DDD4005F0010505F0010523
:10386400C6E7FEF77FFA28B121692E290DD184F825
:103874004C70DDE72069FEF77FFA0028F4D1236954
:103884002E2BF1D05F2BD6D055E521F020034A2B07
:10389400CED1ECE7652F01D0632F00D1013501367D
:1038A40001358EE7212F07D123693D2B93D1204683
:1038B400FFF75AFC3A2373E52E2F0DD123692E2BE3
:1038C40044D163692E2B41D12046FFF74DFC20469D
:1038D400FFF74AFC0E2363E50335334615F8027CF3
:1038E400632F0FD0652F0DD01F4AD35C84F84C3062
:1038F40003F0FD02552A01D0592B14D1636B013317
:10390400636318E515F8012C2169914206F101065B
:1039140007D12046FFF728FC3346652FE4D0023553
:10392400DCE7632FFAE7562B02D0582A7FF403AD65
:10393400636B013BE4E7012384F84C30834695E64E
:103944004FF0080B92E64FF0090B8FE65D2327E555
:103954004FF0070B8AE600BF400903083006002039
:103964001D08030801204000130903087FB506461B
:1039740001AD742085E80E00FCF728FD04460346DB
:1039840095E8070043F8046B83E807006FF0010231
:1039940000250123E2620A22A263A362E363256392
:1039A40065631420FCF712FD2021206404F150000B
:1039B400FDF713FD294604F16000FDF70EFD236CAD
:1039C40020461D80A56165612561FFF7CDFB20467A
:1039D400FFF7CAFB2046FFF7C7FB2046FFF77AFC38
:1039E400A36C012B18BF0723204618BF84F84C3062
:1039F40004B070BD30B585B001AC05462046FFF774
:103A04009BFB94E80E002846FFF7B0FF05B030BDDD
:103A140030B585B001AC01460546204619F06CFA74
:103A24002846FDF7B9FB94E80E00FFF79FFF05B0A9
:103A340030BD10B5044690B1C3684068984704F19E
:103A44005000FDF7F3FC04F16000FDF7EFFC206C7F
:103A5400FCF7E4FC2046BDE81040FCF7DFBC10BDD9
:103A640003694269013B036152F823007047C1F1C5
:103A74007F5101F57F11036901F57F513F311944ED
:103A8400436953F821007047F8B5446A05460E4669
:103A9400B4B194E809000B44834222D908310022CE
:103AA40001442046FCF7B8FC0246B8B961682046D8
:103AB4000831FCF7B1FC636823602B6A63602C62F5
:103AC400802E374638BF802707F10800FCF77EFCBC
:103AD4000023076043600446686202E023683344BD
:103AE400236060680644666008342044F8BD38B535
:103AF4000D460369C1688B42044608D3103189001E
:103B04004069FCF77EFCE36860611033E36023697D
:103B14006269591C216142F8235038BDF8B50D463D
:103B24001F4690E80A008B420446164608D310311B
:103B3400C9008068FCF765FC2168A0601031216031
:103B44006168A0684B1C636050F8312065F317026C
:103B540000EBC10340F83120DE705F60F8BD10B4A3
:103B64008469CAB20023616C5DF8044BFFF7D6BFC9
:103B740010F001021CD110F003030CD000F00F036D
:103B8400062B15D00A2B11D100090E3803288CBF3F
:103B940000200120704770B102793A2A08D02D2AFA
:103BA40008D18068B0FA80F0400970471046704729
:103BB4000120704718467047C20702D540F0010043
:103BC4007047830710D0030900F00F00062803D1C3
:103BD400D80040F002007047A3F10F00022809D872
:103BE400064B53F82000704730B103793A2B03D1C8
:103BF400806870470248704702487047D00903083C
:103C040054270308182E030838B505460C46FFF759
:103C1400AFFF38B12846FFF7CFFF06F0F9FD031BCD
:103C24005842584138BD2DE9F04105460F46144627
:103C34001646C6B9314620460DF070FC00EB8408E8
:103C4400064608F10808CCB90C212846FFF71CFFEA
:103C54004FF49D7301460760436086602846FFF772
:103C640046FF012008E0013E31462846FFF7FFFEEB
:103C7400FFF77EFF0028DCD1BDE8F0812846FFF77E
:103C8400EFFE0146FFF798FF013C48F8040D0029B8
:103C9400D9D08B07D7D1686A00F108039942D2D3EF
:103CA400426813449942CED24B681B0A0233A2EBFA
:103CB40083034360C7E738B5D3070D46144602D5DE
:103CC40042F0010038BD0C21FFF7DEFE4FF49D7376
:103CD40005604360846038BDF8B58669054696F88A
:103CE4004C0009280F461ED1716DB06DFDF7B4F973
:103CF400902F04460ED1C100002241F0020105F1CB
:103D0400280006F05FF928B14268716C2846FFF775
:103D1400D2FF02E0200140F0020001462846BDE83F
:103D2400F840FFF7E4BE0A2807D100223346716D3C
:103D3400B06D04F091F90246E7E70B2811D1334640
:103D44000122716DB06D04F007FA04460C21284677
:103D5400766CFFF799FE4FF49D73066043608460B0
:103D6400DBE70C2813D1716DB06D0A2906D8FDF775
:103D740073F930B1000140F00600CEE7FDF73EF9DB
:103D8400F7E7726DB16D07480BF019FDDDE70D28FB
:103D940004D1716DB06D0BF0FDFDD6E7000140F06C
:103DA4000A00BAE7AC2C030810F0010204D040F07A
:103DB4000100086001207047A8B110F003030FD17F
:103DC40002793A2A0ED183680B6013F001000AD1FC
:103DD4009A0708D11868044BC31A584258417047CF
:103DE4001046704718467047502003080021FFF71B
:103DF4000BBF0121FFF708BF2DE9F04F2D2A85B035
:103E04000446884616461D4650D10021FFF72FFE72
:103E140020B1870767D10379922B64D1A6F11E03E1
:103E2400012B00F28180A9462F46B9F1000F0ED074
:103E340009F1FF3949462046FFF719FE23696269F3
:103E4400DB1B824642F82300B9F1000F52D1013F37
:103E540000218F4263D8ED1B012D44D0A6F123032A
:103E6400022B02D92A2E40F0A480691E2046FFF7B7
:103E7400FEFD01A9FFF798FF002800F08D80232E96
:103E84006CD0242E6DD0252E0CBF4FF018094FF0A6
:103E94002209AF1E002F67DA002D40F094812946D5
:103EA400019A2046FFF707FF014650E0922A1DD1F0
:103EB4000021FFF7DCFD01460028AFD08807ADD113
:103EC4000B79952B04D12046FFF7CAFD013DA5E7E8
:103ED400962BA3D12046FFF7C3FD4B6823F0FF03C5
:103EE40043F092034B6005B0BDE8F08F962A08BFFB
:103EF400013593E71E2E0AD1FFF77BFF0028A6D1D8
:103F04005046FFF773FF00288FD1013F8DE7FFF77D
:103F14006DFF00289BD15046FFF76BFFF3E7204667
:103F2400FFF79EFD013194E7202E97D10021204612
:103F3400FFF79DFD0746FFF759FF60B93846FFF7C5
:103F440058FF00288AD0FA212046FFF789FD204631
:103F5400FFF7CDFDC7E74FF48D71F5E74FF0160974
:103F640097E74FF0170994E739462046FFF77FFD9E
:103F740002A9FFF719FF78B1B9F1220F07D0029A0D
:103F84000199484605F0A8FB013F019082E7029899
:103F940009F00CF90028F2DA922E40F019816268D7
:103FA400A36803EBC20313F8053C2D2B40F0C58036
:103FB40025E1A6F12603022B39D8691E2046FFF716
:103FC40056FD01A9FFF7F0FE0028E5D0A5F102098E
:103FD400B9F1000F7FF760AF09F1FF312046FFF719
:103FE40046FD02A9FFF7E0FE0028D5D04946204649
:103FF400FFF73DFDC0F307104328CDD04528CBD0B3
:104004002538C7B2029809F0D1F81A2F0AD8002827
:10401400C2DB029A0199384605F05EFBA9F1020958
:104024000190D5E71E2FF4D90028F2D1B4E7292E48
:1040340018D100212046FFF71AFD01A9FFF7B4FEAD
:1040440000287AD001212046FFF711FDC0F30710A4
:1040540034281ABF4038C0B20220019904F08EFD02
:10406400019019E7052E76D100212046FFF7FFFCC9
:104074000746002861D010F0030A03D10379563BA8
:10408400012B5AD901212046FFF7F1FC00F00F0360
:10409400022B52D1BAF1000F4FD13B792C2B4CD1CA
:1040A400BB6803F00F02022A47D11B09482B44D1F5
:1040B400FB68002B41D09A073FD11A79302A3CD1B2
:1040C400D3F808B04FEA10195846FFF751FD68B904
:1040D40059495A4808F016F8A1693A68096805462A
:1040E400534608F0D9F82846FCF74AF95846FFF732
:1040F40063FD4FEAC9010746012241F0020104F1C0
:10410400280005F05FFF47604846FDF76AF803782A
:104114005F2B20460BD1FFF7A3FC2046FFF7A0FC42
:104124000023082219462046FFF766FEDBE6FFF768
:1041340097FC59462046FFF7DAFCAF1CBF0039460E
:104144002046FFF7A1FC46EA05238146C0F800801B
:104154004360074466E02C2E7FF41EAF0121204605
:10416400FFF785FC002102462046FFF780FC02F0A1
:104174000F03022BE1D10028DFD08707DDD10379BB
:10418400322BDAD1110987682D48C900002241F089
:1041940002013F0905F016FF0028CED002AA3946D5
:1041A400406804F005FC029B002BC6D0D90705D457
:1041B4009A07C2D11968234A9142BED1039A002AB0
:1041C400BBD1019368E62046FFF74AFC013D63E654
:1041D400962E12D16268A36803EBC20313F8153C50
:1041E4002D2BAAD12A4641462046FFF71CFD002864
:1041F400A3D06368023B636075E6062E08D12A46A5
:1042040041462046FFF70FFD00287FF46CAE94E78B
:10421400362EF4D0332EC9E62046FFF721FC47F8AA
:10422400040D013D002DF7D1962E03D149462046B9
:10423400FFF75DFC49468AE66C0A0308DC1C0308A8
:10424400DC09030850200308036830B513B9136070
:10425400184630BD9C0702D01060012030BD5C6858
:10426400E5B28D42F8D108331360200A30BD000056
:104274002DE9F04F93B00024402302904FF40070D6
:104284000D46019205930694FCF7A0F820230790AD
:10429400802008930994FCF799F821460A900FA806
:1042A4000B950D940E9405F045FE019B002B51D007
:1042B400022B0CBF3F2222460023696C05A8FFF79E
:1042C4002DFC0026069C002C00F06881013C079B15
:1042D400AD49069403EBC40253F83430D7785268DE
:1042E400C3F3170AA94B13F807B0A94BDB5D632F7F
:1042F40088BF43F4807301EB43080BF03003102BA9
:104304000BF00F0928D0202B57D0002E40F0148139
:104314000BF001030393039B134038F8134024F478
:104324007F6121F00F01B1F5805F40F0218195F8A4
:104334004C10C4F30B04A14202F1010440F0FB80D1
:104344001BB9394605A8FFF7C7FC2846FEF7C2FF8C
:104354002246E0E73D22AFE72AB908EB420891453F
:1043640004D80126AEE7002EF7D1AAE7464638F86E
:10437400023B23F47F6121F00F01B1F5805F0DD181
:1043840095F84C10C3F30B03994214D105A8394690
:10439400FFF7A2FC2846FEF79DFF92E7531C9945C0
:1043A40004D93A46514605A8FFF7B8FB318805A859
:1043B400FFF7D5FB85E70132D1E78EB102F1004367
:1043C400013B38F8133023F47F6323F00F03B3F574
:1043D400405F26D1002105A80392FFF788FB039ACA
:1043E40008EB4204914530D8019B3BB1052F05D120
:1043F400002105A8FFF73BFB00284AD0002408EB66
:1044040049092246C84561D1012A7DD11BF0400FDC
:104414007AD000263146A64205A86ED1FFF767FB85
:104424004FE7012A9DD995F84C30072B40F0E580E1
:104434005849594807F066FE002304466A6C296807
:1044440007F02AFF2046FBF79BFF264634F8023B81
:1044540023F47F6121F00F01B1F5805F17D195F846
:104464004C10DBB299420ED1092905D1394605A871
:104474000392FFF731FC039A03922846FEF72AFFC2
:10448400039A0132AEE7002A3FF46BAFCBE7531C2B
:1044940087E7012105A8FFF7EAFA830710D000F0A7
:1044A4000F000228AAD005A8FFF7DAFA05A8FFF73B
:1044B400D7FA00230822514605A8FFF79DFC00E720
:1044C40000289BD003793A2B98D1ECE739F8023DC8
:1044D40023F47F6121F00F01B1F5805F05D1DBB2D8
:1044E400092B8FD1013401328CE7214605A8FFF74F
:1044F400BEFA00B10132013484E7FFF7B1FA0136A4
:10450400002818BF014686E71BF0800F04D0002165
:1045140005A8FFF7ECFA013423463A46CBE7012A13
:104524003FF41FAF12F001010DD0B9F1030F7FF476
:104534007AAF012107E02246B9F1020FEFD1012A37
:104544003FF40FAF00211BF0010F02F1FF3309D03C
:10455400B8F8020020F47F6020F00F00B0F5805F0F
:1045640008BF5308012BD8D100293FF4AAAED4E7E1
:10457400531C514605A83A46FFF7D0FA214605A830
:10458400FFF7EDFA9EE600BF280B0308780A03083C
:10459400B00E0308100A0308081B03080FA805F04F
:1045A400EBFC0E9850B1416822460831FBF734FF0A
:1045B4000E9B5A681A600D9A5A600D9395F84C3008
:1045C400002B7FF430AF099B002B3FF42CAF0A9BE8
:1045D40007981B680C93FBF721FF0A98FBF71EFF53
:1045E4002846FFF726FA0CAB93E80300029B83E806
:1045F4000300184613B0BDE8F08F022B01D1064921
:1046040017E7042B02D10549054813E7052B0CBF16
:1046140004490549F8E700BF190A0308400A0308DA
:10462400DC1C0308530A0308680A030810B5406831
:1046340000B910BD4468FBF7F1FE2046F8E700001E
:10464400F8B5054630200E461746FBF7D8FE072D71
:1046540004460570C66001D0012D0ED1B3681B0954
:10466400A38203F0FFFE042320612783E384202038
:10467400FBF7ACFEE0622046F8BD014B5B5DEFE763
:10468400600F030810B50446C06AFBF7C7FE204656
:10469400BDE81040FBF7C2BE30B5048D0022A24233
:1046A40002D30023184630BDC36A03EBC2035D681E
:1046B4008D42F7D00132F2E770B504460D46164636
:1046C400FFF7EAFFC0B9E18C238D8B4208D3063192
:1046D400C900E06AFBF795FEE38CE0620633E384ED
:1046E400238DE26A591C02EBC300218502F8336072
:1046F400002343704380456070BD43680BB9FFF7E6
:10470400CBBF1846F9E7F8B544680F46ECB9F8BDD5
:104714007E6818463146FFF7BFFF2B46B0B10378D9
:10472400043B022B15D806233B701D46002231465C
:104734002046FFF7C1FF037813B905706468F5E7F5
:10474400042B06D105230370F8BD23465D68002DB4
:10475400DED1F8BD2DE9F04180461F46C1B111F00C
:10476400030510D14E68F3B293420CD1360A01F11D
:104774000804B54201DBBDE8F08154F8041B40464F
:10478400B8470135F5E740463B46BDE8F0411847D8
:10479400BDE8F081024B89689D22FFF7DBBF00BFB3
:1047A400B1520008024B89686B22FFF7D3BF00BFE8
:1047B4001D6D000810B50446084611461A46FFF759
:1047C4003FFF236A436000238360E36913B9E06118
:1047D40010BD13469A68002AFBD1986010BD896801
:1047E400406A0022090903F05EB800004278012AF9
:1047F4000B4602D1006AFFF75FBF026A0149406AB3
:1048040002F0E6BCD41103084278012A0B4602D117
:10481400006A02F0CEBC026A0149406A02F0D8BCC8
:10482400DC1103084278012A0B4602D1006A02F027
:10483400C0BC026A0149406A02F0CABCCC11030838
:104844008968406A02F0FABF2DE9F74FB3F1000A14
:10485400C2BFCB8A43F00803CB82036A0C461B78A1
:10486400E283064691469BB10025A846336A1A8D19
:10487400954216DBB8F1000F0AD0CDF800A04B46E4
:1048840042462146706A03F039F903B0BDE8F08F5F
:10489400706A53464A46214603B0BDE8F04F03F020
:1048A4001CB9DB6A03EBC50B13F83530053B012B50
:1048B40003D80027238D9F4201DB0135D6E7E36A45
:1048C40003EBC70213F83730062B0CD1DBF80410C6
:1048D4005368994207D10023BBF80220706A02F0A2
:1048E4005AFE08F101080137E4E700002DE9F04120
:1048F4000446884611461A4600238578078A468A64
:104904008370038243820E4BFFF724FF6368ABB9C5
:10491400618A39B1228A2AB9606A03F0AAF8606A06
:1049240002F099FF238A628A41462046FFF78CFFF2
:10493400003518BF0125A57027826682BDE8F08185
:10494400155A000870B54378012B05460C4606D16C
:10495400036A0A461B8B0221FFF72CFF2061A26821
:10496400216928464C23BDE87040FFF7BFBF70B5EE
:1049740013464278012A06460C4604D10A4607210A
:10498400FFF718FFA061A569E2683046462329466F
:10499400FFF7ACFFA88A70BD036A10B51A8B0446F2
:1049A400FFF7E5FF01462046BDE81040FFF72CBFA6
:1049B40010B50446406A02F0F5FF238B226A0133E6
:1049C400918C9BB29942238338BF938410BD038B8F
:1049D400013B0383406A03F008B8036823B919B1A3
:1049E4008B0704BF0B6803607047000038B5436849
:1049F40004460D465BB91146054807F083FB29467A
:104A0400606004F10800BDE83840FFF7E6BF38BD38
:104A1400DC1C030870B5137805460E4614467BB9B2
:104A2400012313701146006AFFF76DFE2378012BF2
:104A34000AD1064A31462846BDE87040FFF7D6BF82
:104A4400062B01D0024AF7E770BD00BFF30F03083D
:104A540000100308014AFFF7C9BF00BF661103082D
:104A640038B51378054633B1032B04D0064ABDE8A4
:104A74003840FFF7BBBF032414705168286AFFF75E
:104A84003CFE00B1047038BDE60F030838B50B795D
:104A9400092B0CBF858AC58A4FF6FF739D420446D5
:104AA40002D1064AFFF7A2FF228B638B606AD21AF7
:104AB4002946BDE8384002F044BF00BFCD0F0308CB
:104AC40070B50646006AC48A0D46A10706D5214A78
:104AD40029463046BDE87040FFF788BF05F00F0156
:104AE400022912D12909B3781BB1838B0133838343
:104AF40002E0438B01334383012451B30022FFF7C7
:104B0400DBFD037813B3144AE2E72979914202D119
:104B1400A9680909E7E7994211D1B378002BD6D1E6
:104B24000123B370A968A1B101F00F03022B18BFD0
:104B3400896844F00404C48209090324DDE7A968F0
:104B440044F00204C48209090524D6E7042303704F
:104B5400447070BD680A03085C1103084F234E2299
:104B6400FFF7AEBF49234822FFF7AABF10B504469A
:104B74000021006802F03EFF2068102102F0FAFDD7
:104B840020680121BDE8104002F0FCBF10B50446C6
:104B94000022406A02F063FE002354F8240F1A46F0
:104BA400194602F0CEFF2046BDE81040FFF7DEBFF5
:104BB40070B505460C4679B3CA0705D54910406A55
:104BC400BDE8704002F0F0BD8B0718D004F00F046C
:104BD400022C4FEA111109D0062C0BD006291BD048
:104BE400C9B2406ABDE8704002F0C4BDBDE870407F
:104BF400FFF7FCBD406ABDE8704002F01ABE0968C8
:104C0400406A02F03DFD2279044B2146284653F8C0
:104C14002230BDE87040184770BD00BF4010030843
:104C24002DE9F84F8F0704460D46164610D001F0C3
:104C34000F03022B15D109090AB1022A04D1204617
:104C4400BDE8F84FFFF7E0BDBDE8F84FFFF7CEBD74
:104C54004968CBB22D2B70D00AD8062B0CD02C2B44
:104C640011D029462046474ABDE8F84FFFF7BEBE9B
:104C74002E2B74D09D2BF4D1002EF2D105F1080215
:104C8400090A204670E0022A02D0A968FFF790FFC3
:104C9400EF68002FE5D017F00309E2D17B68DAB2A0
:104CA4008E2AB84607D1022E4FEA13280ED108F1F6
:104CB400010857F8288098F80430312B24D1022EAB
:104CC40012D1606A02F007FE012118E007F1080A18
:104CD40008F1FF3BD945EADA5AF8041B2046FFF7EE
:104CE40067FF09F10109F5E7D8F808102046FFF736
:104CF4005FFF012EE8D1606A02F0C8FD0021606AFE
:104D0400BDE8F84F02F0EBBD322BAAD1012E0BD136
:104D1400606A02F0B7FDD8F808100022606A090939
:104D2400BDE8F84F02F0BFBD022E02D1606A02F066
:104D3400B6FDD8F808100122F0E7AA68002A90D03E
:104D4400002E8ED15168090A022906D1D36823B1F5
:104D5400980702D11B79AC2B83D0083291E7002A43
:104D64007FF47FAFA96819B9BDE8F84F00F00CB81B
:104D74008E0703D10B79922B0A46E3D005F1080282
:104D840001217EE7670F03082DE9F84306468846AC
:104D940091464F1E00244FF0FF357A1C0AD16B1C3C
:104DA40003D14146706A02F089FE002444451AD1B9
:104DB400BDE8F88359F8241061B188070AD10B794A
:104DC400222B07D1013508D13A462146706A02F0F8
:104DD4007AFE25460134013FDFE73046094ABDE843
:104DE400F843FFF703BEA54209BF59F8253059F827
:104DF40024109968002218BF00223046FFF710FFE4
:104E04000134D3E7720F03082DE9F74F05460C462A
:104E140016461F462046FEF7E9FF38B166B9686AB0
:104E2400394603B0BDE8F04F02F06FBD2046FEF7EF
:104E3400E0FF20B1002EF2D103B0BDE8F08F002CCA
:104E440050D0A3074ED163684FEA132ADBB21E2B5E
:104E540037D1002E39D1D5F80CB00BF10103EB603A
:104E64000AF1FF33009386F0010304F108094FF0BF
:104E740000080193009B98450FDB0AF101012846C5
:104E840054F821103B463246FFF7BEFF686A594684
:104E940003B0BDE8F04F02F045BC5B46019A59F8F7
:104EA400041B2846FFF7B0FF08F10108E2E73B4680
:104EB400324658F8041B2846FFF7A6FFA045F6D152
:104EC400BAE71F2B08D1002EC5D10AF1020304F161
:104ED400080804EB8304F1E7202B03D186F00106D4
:104EE400A46897E721462846FFF762FE686A3A46B7
:104EF400314603B0BDE8F04F02F011BD2DE9F8438F
:104F0400C66804461F46B31CC3600D46406A31465A
:104F140006F10108914602F005FC4146606A02F080
:104F240071FDA96800222046FFF77AFE2D690DBBAA
:104F340049462046FFF73CFE236A1978062913D117
:104F4400606A294602F01EFE606A02F0A3FC314644
:104F5400606A02F0DAFC606A414602F0E3FB606AD0
:104F6400BDE8F84302F053BDBA000532606A02F0AE
:104F740090FDECE72B79AD2B07D1A96833460022CD
:104F84002046FFF741FFED68D1E7E9682046FFF7C7
:104F94000FFE606A012102F02DFD7B1C4A46294662
:104FA4002046FFF7ABFFD2E72DE9F041044600238A
:104FB400032A627021620E46C360154684F82820D5
:104FC40002D1408D18BBE0624FF000082946A4F8D6
:104FD4002A803246606A02F061F96778F568012F29
:104FE40004BFA6F82280A6F82480A5B1AA0712D18E
:104FF4002B793F2B0FD1A9682046FFF7D9FD606AB2
:1050040002F0ABFD606ABDE8F04102F005BA800031
:10501400FBF7F5F9D7E7337843B929462046FFF77C
:10502400C7FD1021606A02F0A5FBE8E7072B0BD14E
:10503400012F07D10023A3704622494BE96820467B
:10504400FFF788FB6969E9E7022B19D12968606ACF
:1050540002F016FB6378012B07D10023A3704C22C6
:10506400404BA9682046FFF775FBE9682046FFF727
:105074009FFDF38ADB07C2D5606A02F00BFCD0E720
:10508400033B032B40D8012FD5F80C8005D1042213
:105094003946206AFFF710FB77832968606A02F0BB
:1050A400EFFA3378032B1ED101220021606A02F04B
:1050B400E0FC3378062B1ED1606A02F0CCFB0121A0
:1050C4002046FFF793FB606A02F0C5FB606A02F0BA
:1050D400C2FB0023AA6841462046FFF70FFF33783E
:1050E400062B8CD19DE7042B01D10222DDE7052B91
:1050F400DFD10322D9E720460121FFF777FB012105
:10510400606A02F077FCE4E7012F04D104220A214B
:105114003046FFF7D1FA17212046FFF767FB162127
:105124002046FFF771FBA968606A090902F081FB58
:105134001A212046FFF768FB29692046FFF738FD4E
:105144000A213046FFF7A8FA0378042B3FF469AF2D
:105154004288606A00230A2102F01DFA4FE700BF6B
:10516400694B0008614B000838B50C460546C96810
:10517400FFF71EFDA1682846BDE83840FFF718BDBB
:1051840038B50B79342B04460D460CD18968FFF7EA
:105194000FFDED68AD685DB91021606A02F0EAFAAE
:1051A4000422022115E01021406A02F0E3FAF1E73B
:1051B400AB071CD12B799A2B10D11021606A02F015
:1051C400D9FAA9680029EBD02046FFF7F1FC0422A4
:1051D4000321606ABDE8384002F04BBC9B2B06D12A
:1051E400A9682046FFF7E4FCEB689968EAE72946DA
:1051F4002046FFF7DDFCD3E710B504468968FFF7C6
:10520400D7FC606A0021BDE8104002F068BB2DE9BC
:10521400F84FC668B0F814B0B0F816A0B0F81A90F9
:105224008682B31CC36006F10108038BA0F81680C4
:105234000446438388680D46FEF7D8FDE0B9E76865
:105244007B1CE360A868FEF7D4FD18B94146606A88
:1052540002F05BFB3946606A02F064FAE9682046B2
:10526400FFF7A6FC4146606A02F05CFA3B46012265
:10527400A9682046FFF7C8FD2969A4F814B02046A0
:10528400A4F816A0A4F81A90FFF792FC3146606ABD
:10529400BDE8F84F02F046BA10B504468968FFF736
:1052A40087FC606ABDE8104002F0F4BA01F00F0315
:1052B400022B2DE9F04707460C4604D10909BDE845
:1052C400F047FFF7AFBA002953D0A10751D1237992
:1052D4002C2B36D1A168FFF76BFCE568002D48D074
:1052E40015F0030845D16E68F2B28E2A2B4609D117
:1052F400360A05F1080906F1FF3AD0450FDB0136FD
:1053040055F826301A79312A11D138469968FFF7B1
:105314004FFC786A0221BDE8F04702F0E0BA59F880
:10532400041B3846FFF744FC08F10108E5E7322A7C
:105334001FD19968786A02220909BDE8F04702F092
:10534400B2BA2D2B15D1A4689CB163681B0A022B39
:1053540001D1E36843B904F1080600256368B5EB9D
:10536400132F0DD3BDE8F0879A07F4D11B79AC2B2A
:10537400F1D121463846064ABDE8F047FFF736BB6F
:1053840056F8041B3846FFF791FF0135E6E700BFE6
:10539400790F0308F8B54D682D0AAC1C074601F1D6
:1053A400080601EB8404A64206D12946786A002245
:1053B400BDE8F84002F05DBB56F8041B3846FFF721
:1053C400F7FBF0E74B682DE9F04106460F461D0A4E
:1053D40001F108080024AC4201DBBDE8F08158F873
:1053E400041B3046FFF7E4FB736843B1023406F153
:1053F400080057F82410BDE8F041FFF7EEBA013475
:10540400E9E710B50446FFF7DDFF606A2221BDE835
:10541400104002F010BB2DE9F347C668731CC3604B
:10542400044688680D46FEF7E1FC0246D8B9E768F1
:105434007B1CE360A9683B462046FFF7E5FC204659
:10544400E968FFF7B5FBA868FEF7D3FCC8B92B6978
:105454000BB96B691BB13146606A02F056FA3946E2
:10546400606A02F05FF901AA712105F11000FEF7EC
:10547400EBFE0027824657450AD169692046FFF7AB
:1054840097FB3146606A02F04DF902B0BDE8F0873F
:10549400019B53F82780D8F80800FEF7A7FC0246C2
:1054A400E8B9D4F80C9009F10103E360D8F80810C6
:1054B4004B462046FFF7A8FC2046D8F80C10FFF70F
:1054C40077FBD8F80800FEF794FC0028D9D13146C0
:1054D400606A02F01AFA4946606A02F023F9013759
:1054E400C9E770B54378CD68012B0446164606D14A
:1054F400036A0A461B8B3146FFF75CF96861002397
:105504001A4669692046FFF79FF9E9682046FFF7C4
:105514004FFB062E03D10021606A02F06BFA0023D0
:10552400606A1A460121BDE8704002F0FFBA38B53E
:105534008C68054634B901222146686ABDE83840C2
:1055440002F097BAA1071BD16368DAB2922A17D185
:105554001B0A022B0CD1E36853B19A0708D11B79BB
:10556400AC2B05D121460322BDE83840FFF7B9BF73
:1055740021462846FFF726FF61680122090ADCE775
:1055840021462846FFF714FB01221146D5E7000007
:1055940001F00F03022B70B504460D46164602D0E7
:1055A4001E4AFFF723FA31462046FFF701FB606AE3
:1055B40002F068F96378012B4FEA15160FD1226ABD
:1055C4001378033B032B0AD85068314601F0F1FDF0
:1055D4000278032A09D13146206AFFF76DF8314673
:1055E4002046BDE87040FFF70FB900223146206A1B
:1055F400FFF762F8236A5B685B6802464BB1037885
:10560400012B01D10023037029462046FFF702FA3B
:10561400E5E729462046FFF723FAE0E7670F03088A
:10562400CA688968FFF7B4BF2DE9F04F85B0044616
:1056340001910092A42103AA01A81D46FEF704FECD
:1056440000278346B9463E46B8465F450ED11EB193
:105654004946606A02F0A8F8009B002B72D03346DA
:1056640042462946606A02F06CFA13E0039B53F841
:1056740027A0BAF1000F5AD01AF0030F57D19AF8A5
:105684000420A62A1AD1B00707D5324A514620462B
:10569400FFF7ACF905B0BDE8F08F1D2F01D92E4AF4
:1056A400F4E7012303FA07F2DAF8081046F00106DA
:1056B40049EA02092046FFF77BFA1FE0A72A0DD129
:1056C400606A02F0C8F8DAF8081046F002062046CC
:1056D400FFF76EFA08F101080137B6E7A82A26D1C8
:1056E400DAF80C2072B191070CD11179AA2907D1EB
:1056F4009268DAF808102046FFF74AFF0135EBE715
:10570400AC290ED0DAF8081001F00F02022A01D0F9
:10571400124ABBE70909606A02F08BF8DAF80C1048
:10572400D5E7062251462046FFF7DBFEE6E7B3073E
:1057340001D50B4AAAE7B8F1000F01D0094AA5E741
:105744005146B7E7334642462946606A02F0EEF90D
:10575400A0E700BF731103087A110308821103083C
:105764008F1103089611030870B50D46417801297D
:105774000446134603D12A46FFF71CF86861606AA1
:1057840002F07CF86E6900231A4631462046FFF782
:105794005BF8B18A606A02F04CF8E96829B18B07BA
:1057A40003D10B79A32B08BF00212046022300223A
:1057B400FFF73AFFB08A70BD036A10B51A8B04462E
:1057C400FFF7D2FF01462046BDE81040FFF71CB8A2
:1057D40000231A468968FFF727BF00002DE9F04F20
:1057E400044685B08A4602AA42210AF10800FEF75F
:1057F4002BFD236ADFF8E8B01F8B009000252E46AE
:10580400009B9D420AD1DAF80C100B79032B37D197
:105814003A462046FFF7ABF8074641E0029B53F8AF
:10582400258003AA6C2108F10800FEF70DFD039BF7
:1058340019680A09732A81464CD1022805D05A46B0
:105844002046FFF7D3F8013618E059680B09412BBD
:10585400F5D10127F7E7039A606A52F82310019300
:105864000022090902F01FF8019B01334B45F2D3D2
:10587400D8F80C1011B12046FFF79AF90135BFE7AB
:10588400442B19D1D1F808803A4641462046FFF707
:105894006EF8D8F81820D38A43F001030746D38260
:1058A4004FF00008AD1BA8450BD339462046FEF740
:1058B400ABFF05B0BDE8F08F3A462046FFF754FF32
:1058C400AAE700231A460121606A02F02FF908F1C1
:1058D4000108E8E72046FFF76BF90123C6E700BF9C
:1058E400071003082DE9F7438D680446164635B9B9
:1058F400BAB102222946606A02F0BBF811E0AB0794
:1059040077D12B79372B0FD122B102220121406AA2
:1059140002F0AFF820462946FFF74AF9606A02F020
:10592400B3F803B0BDE8F0839F2B62D1EB681A791A
:10593400A12A4ED1A22101AA03F10800FEF784FC9A
:10594400A9688046E1B18F071AD10B79372B17D19B
:1059540026B1411C0222606A02F08BF8A968204635
:10596400FFF726F9606A02F08FF84FF0010900276B
:1059740047450BD1B9F1000FD3D10322791CBAE703
:105984002046FFF715F94FF00009F0E7019B53F8A3
:10599400271099B18E0711D10E79A6F1370046422E
:1059A40046412046FFF704F9B9F1000F0DD03EB986
:1059B400134A29462046FFF719F8B2E70026F0E714
:1059C400606A02F061F80137D2E7002EFBD00D4A7D
:1059D400EFE7AB684BB19A0707D11B79372B04D19A
:1059E40004222946FFF77DFD9BE705222946204630
:1059F400F8E729462046FFF7DBF8032201217AE77E
:105A04009A0F0308A80F03080122FFF76BBF0000D9
:105A140001F00F03022B70B5044611D00B79492B0A
:105A240001D04F2B02D10123A37070BD4A2B3ED06D
:105A3400502B3CD0482B0CBF0D69CD688E6855B9EE
:105A4400A378002B33D1638A8BB32046184ABDE870
:105A54007040FEF7CBBF83780BB3038A01339BB24C
:105A6400012B03820AD1418AA9B10022406A02F0C3
:105A740000F802220021606A01F0FBFF294620465B
:105A8400FFF796F8606A310901F0D3FE606ABDE859
:105A9400704001F0F9BF406A01F0DDFEE9E7438A96
:105AA400013329464382BDE87040FFF781B870BDD9
:105AB4001F1003082DE9F8430C4689680646FFF7D2
:105AC40077F8E568002D00F0A5806F68FBB28E2B97
